{
  "_format": "hh-sol-artifact-1",
  "contractName": "Voting",
  "sourceName": "contracts/Voting.sol",
  "abi": [
    {
      "inputs": [
        {
          "internalType": "string[]",
          "name": "_candidateNames",
          "type": "string[]"
        },
        {
          "internalType": "uint256",
          "name": "_duration",
          "type": "uint256"
        }
      ],
      "stateMutability": "nonpayable",
      "type": "constructor"
    },
    {
      "inputs": [
        {
          "internalType": "string",
          "name": "_name",
          "type": "string"
        }
      ],
      "name": "addCandidate",
      "outputs": [],
      "stateMutability": "nonpayable",
      "type": "function"
    },
    {
      "inputs": [
        {
          "internalType": "uint256",
          "name": "",
          "type": "uint256"
        }
      ],
      "name": "candidates",
      "outputs": [
        {
          "internalType": "string",
          "name": "name",
          "type": "string"
        },
        {
          "internalType": "uint256",
          "name": "voteCount",
          "type": "uint256"
        }
      ],
      "stateMutability": "view",
      "type": "function"
    },
    {
      "inputs": [],
      "name": "getAllVotesOfCandidates",
      "outputs": [
        {
          "components": [
            {
              "internalType": "string",
              "name": "name",
              "type": "string"
            },
            {
              "internalType": "uint256",
              "name": "voteCount",
              "type": "uint256"
            }
          ],
          "internalType": "struct Voting.Candidate[]",
          "name": "",
          "type": "tuple[]"
        }
      ],
      "stateMutability": "view",
      "type": "function"
    },
    {
      "inputs": [],
      "name": "getRemainingTime",
      "outputs": [
        {
          "internalType": "uint256",
          "name": "",
          "type": "uint256"
        }
      ],
      "stateMutability": "view",
      "type": "function"
    },
    {
      "inputs": [],
      "name": "getVotingStatus",
      "outputs": [
        {
          "internalType": "bool",
          "name": "",
          "type": "bool"
        }
      ],
      "stateMutability": "view",
      "type": "function"
    },
    {
      "inputs": [
        {
          "internalType": "uint256",
          "name": "_index",
          "type": "uint256"
        }
      ],
      "name": "vote",
      "outputs": [],
      "stateMutability": "nonpayable",
      "type": "function"
    },
    {
      "inputs": [
        {
          "internalType": "address",
          "name": "",
          "type": "address"
        }
      ],
      "name": "voters",
      "outputs": [
        {
          "internalType": "bool",
          "name": "",
          "type": "bool"
        }
      ],
      "stateMutability": "view",
      "type": "function"
    }
  ],
  "bytecode": "0x60806040523480156200001157600080fd5b506040516200193138038062001931833981810160405281019062000037919062000419565b60005b8251811015620000dc57600060405180604001604052808584815181106200006757620000666200047f565b5b60200260200101518152602001600081525090806001815401808255809150506001900390600052602060002090600202016000909190919091506000820151816000019081620000b99190620006ef565b506020820151816001015550508080620000d39062000805565b9150506200003a565b5033600160006101000a81548173ffffffffffffffffffffffffffffffffffffffff021916908373ffffffffffffffffffffffffffffffffffffffff16021790555042600381905550603c8162000134919062000852565b426200014191906200089d565b6004819055505050620008d8565b6000604051905090565b600080fd5b600080fd5b600080fd5b6000601f19601f8301169050919050565b7f4e487b7100000000000000000000000000000000000000000000000000000000600052604160045260246000fd5b620001b38262000168565b810181811067ffffffffffffffff82111715620001d557620001d462000179565b5b80604052505050565b6000620001ea6200014f565b9050620001f88282620001a8565b919050565b600067ffffffffffffffff8211156200021b576200021a62000179565b5b602082029050602081019050919050565b600080fd5b600080fd5b600067ffffffffffffffff82111562000254576200025362000179565b5b6200025f8262000168565b9050602081019050919050565b60005b838110156200028c5780820151818401526020810190506200026f565b60008484015250505050565b6000620002af620002a98462000236565b620001de565b905082815260208101848484011115620002ce57620002cd62000231565b5b620002db8482856200026c565b509392505050565b600082601f830112620002fb57620002fa62000163565b5b81516200030d84826020860162000298565b91505092915050565b60006200032d6200032784620001fd565b620001de565b905080838252602082019050602084028301858111156200035357620003526200022c565b5b835b81811015620003a157805167ffffffffffffffff8111156200037c576200037b62000163565b5b8086016200038b8982620002e3565b8552602085019450505060208101905062000355565b5050509392505050565b600082601f830112620003c357620003c262000163565b5b8151620003d584826020860162000316565b91505092915050565b6000819050919050565b620003f381620003de565b8114620003ff57600080fd5b50565b6000815190506200041381620003e8565b92915050565b6000806040838503121562000433576200043262000159565b5b600083015167ffffffffffffffff8111156200045457620004536200015e565b5b6200046285828601620003ab565b9250506020620004758582860162000402565b9150509250929050565b7f4e487b7100000000000000000000000000000000000000000000000000000000600052603260045260246000fd5b600081519050919050565b7f4e487b7100000000000000000000000000000000000000000000000000000000600052602260045260246000fd5b600060028204905060018216806200050157607f821691505b602082108103620005175762000516620004b9565b5b50919050565b60008190508160005260206000209050919050565b60006020601f8301049050919050565b600082821b905092915050565b600060088302620005817fffffffffffffffffffffffffffffffffffffffffffffffffffffffffffffffff8262000542565b6200058d868362000542565b95508019841693508086168417925050509392505050565b6000819050919050565b6000620005d0620005ca620005c484620003de565b620005a5565b620003de565b9050919050565b6000819050919050565b620005ec83620005af565b62000604620005fb82620005d7565b8484546200054f565b825550505050565b600090565b6200061b6200060c565b62000628818484620005e1565b505050565b5b8181101562000650576200064460008262000611565b6001810190506200062e565b5050565b601f8211156200069f5762000669816200051d565b620006748462000532565b8101602085101562000684578190505b6200069c620006938562000532565b8301826200062d565b50505b505050565b600082821c905092915050565b6000620006c460001984600802620006a4565b1980831691505092915050565b6000620006df8383620006b1565b9150826002028217905092915050565b620006fa82620004ae565b67ffffffffffffffff81111562000716576200071562000179565b5b620007228254620004e8565b6200072f82828562000654565b600060209050601f83116001811462000767576000841562000752578287015190505b6200075e8582620006d1565b865550620007ce565b601f19841662000777866200051d565b60005b82811015620007a1578489015182556001820191506020850194506020810190506200077a565b86831015620007c15784890151620007bd601f891682620006b1565b8355505b6001600288020188555050505b505050505050565b7f4e487b7100000000000000000000000000000000000000000000000000000000600052601160045260246000fd5b60006200081282620003de565b91507fffffffffffffffffffffffffffffffffffffffffffffffffffffffffffffffff8203620008475762000846620007d6565b5b600182019050919050565b60006200085f82620003de565b91506200086c83620003de565b92508282026200087c81620003de565b91508282048414831517620008965762000895620007d6565b5b5092915050565b6000620008aa82620003de565b9150620008b783620003de565b9250828201905080821115620008d257620008d1620007d6565b5b92915050565b61104980620008e86000396000f3fe608060405234801561001057600080fd5b506004361061007d5760003560e01c8063581c281c1161005b578063581c281c146100eb57806390a9ab9014610109578063a3ec138d14610127578063efb98bcf146101575761007d565b80630121b93f146100825780633477ee2e1461009e578063462e91ec146100cf575b600080fd5b61009c60048036038101906100979190610647565b610175565b005b6100b860048036038101906100b39190610647565b6102df565b6040516100c6929190610713565b60405180910390f35b6100e960048036038101906100e49190610878565b61039b565b005b6100f361045b565b60405161010091906108dc565b60405180910390f35b610111610475565b60405161011e9190610a4f565b60405180910390f35b610141600480360381019061013c9190610acf565b610570565b60405161014e91906108dc565b60405180910390f35b61015f610590565b60405161016c9190610afc565b60405180910390f35b600260003373ffffffffffffffffffffffffffffffffffffffff1673ffffffffffffffffffffffffffffffffffffffff16815260200190815260200160002060009054906101000a900460ff1615610202576040517f08c379a00000000000000000000000000000000000000000000000000000000081526004016101f990610b63565b60405180910390fd5b6000805490508110610249576040517f08c379a000000000000000000000000000000000000000000000000000000000815260040161024090610bcf565b60405180910390fd5b6000818154811061025d5761025c610bef565b5b9060005260206000209060020201600101600081548092919061027f90610c4d565b91905055506001600260003373ffffffffffffffffffffffffffffffffffffffff1673ffffffffffffffffffffffffffffffffffffffff16815260200190815260200160002060006101000a81548160ff02191690831515021790555050565b600081815481106102ef57600080fd5b906000526020600020906002020160009150905080600001805461031290610cc4565b80601f016020809104026020016040519081016040528092919081815260200182805461033e90610cc4565b801561038b5780601f106103605761010080835404028352916020019161038b565b820191906000526020600020905b81548152906001019060200180831161036e57829003601f168201915b5050505050908060010154905082565b600160009054906101000a900473ffffffffffffffffffffffffffffffffffffffff1673ffffffffffffffffffffffffffffffffffffffff163373ffffffffffffffffffffffffffffffffffffffff16146103f557600080fd5b6000604051806040016040528083815260200160008152509080600181540180825580915050600190039060005260206000209060020201600090919091909150600082015181600001908161044b9190610ea1565b5060208201518160010155505050565b60006003544210158015610470575060045442105b905090565b60606000805480602002602001604051908101604052809291908181526020016000905b8282101561056757838290600052602060002090600202016040518060400160405290816000820180546104cc90610cc4565b80601f01602080910402602001604051908101604052809291908181526020018280546104f890610cc4565b80156105455780601f1061051a57610100808354040283529160200191610545565b820191906000526020600020905b81548152906001019060200180831161052857829003601f168201915b5050505050815260200160018201548152505081526020019060010190610499565b50505050905090565b60026020528060005260406000206000915054906101000a900460ff1681565b60006003544210156105d7576040517f08c379a00000000000000000000000000000000000000000000000000000000081526004016105ce90610fbf565b60405180910390fd5b60045442106105e957600090506105fa565b426004546105f79190610fdf565b90505b90565b6000604051905090565b600080fd5b600080fd5b6000819050919050565b61062481610611565b811461062f57600080fd5b50565b6000813590506106418161061b565b92915050565b60006020828403121561065d5761065c610607565b5b600061066b84828501610632565b91505092915050565b600081519050919050565b600082825260208201905092915050565b60005b838110156106ae578082015181840152602081019050610693565b60008484015250505050565b6000601f19601f8301169050919050565b60006106d682610674565b6106e0818561067f565b93506106f0818560208601610690565b6106f9816106ba565b840191505092915050565b61070d81610611565b82525050565b6000604082019050818103600083015261072d81856106cb565b905061073c6020830184610704565b9392505050565b600080fd5b600080fd5b7f4e487b7100000000000000000000000000000000000000000000000000000000600052604160045260246000fd5b610785826106ba565b810181811067ffffffffffffffff821117156107a4576107a361074d565b5b80604052505050565b60006107b76105fd565b90506107c3828261077c565b919050565b600067ffffffffffffffff8211156107e3576107e261074d565b5b6107ec826106ba565b9050602081019050919050565b82818337600083830152505050565b600061081b610816846107c8565b6107ad565b90508281526020810184848401111561083757610836610748565b5b6108428482856107f9565b509392505050565b600082601f83011261085f5761085e610743565b5b813561086f848260208601610808565b91505092915050565b60006020828403121561088e5761088d610607565b5b600082013567ffffffffffffffff8111156108ac576108ab61060c565b5b6108b88482850161084a565b91505092915050565b60008115159050919050565b6108d6816108c1565b82525050565b60006020820190506108f160008301846108cd565b92915050565b600081519050919050565b600082825260208201905092915050565b6000819050602082019050919050565b600082825260208201905092915050565b600061093f82610674565b6109498185610923565b9350610959818560208601610690565b610962816106ba565b840191505092915050565b61097681610611565b82525050565b600060408301600083015184820360008601526109998282610934565b91505060208301516109ae602086018261096d565b508091505092915050565b60006109c5838361097c565b905092915050565b6000602082019050919050565b60006109e5826108f7565b6109ef8185610902565b935083602082028501610a0185610913565b8060005b85811015610a3d5784840389528151610a1e85826109b9565b9450610a29836109cd565b925060208a01995050600181019050610a05565b50829750879550505050505092915050565b60006020820190508181036000830152610a6981846109da565b905092915050565b600073ffffffffffffffffffffffffffffffffffffffff82169050919050565b6000610a9c82610a71565b9050919050565b610aac81610a91565b8114610ab757600080fd5b50565b600081359050610ac981610aa3565b92915050565b600060208284031215610ae557610ae4610607565b5b6000610af384828501610aba565b91505092915050565b6000602082019050610b116000830184610704565b92915050565b7f594f55204841564520414c524541445920564f5445442e000000000000000000600082015250565b6000610b4d60178361067f565b9150610b5882610b17565b602082019050919050565b60006020820190508181036000830152610b7c81610b40565b9050919050565b7f494e56414c494420564f54494e47204d4554484f442e00000000000000000000600082015250565b6000610bb960168361067f565b9150610bc482610b83565b602082019050919050565b60006020820190508181036000830152610be881610bac565b9050919050565b7f4e487b7100000000000000000000000000000000000000000000000000000000600052603260045260246000fd5b7f4e487b7100000000000000000000000000000000000000000000000000000000600052601160045260246000fd5b6000610c5882610611565b91507fffffffffffffffffffffffffffffffffffffffffffffffffffffffffffffffff8203610c8a57610c89610c1e565b5b600182019050919050565b7f4e487b7100000000000000000000000000000000000000000000000000000000600052602260045260246000fd5b60006002820490506001821680610cdc57607f821691505b602082108103610cef57610cee610c95565b5b50919050565b60008190508160005260206000209050919050565b60006020601f8301049050919050565b600082821b905092915050565b600060088302610d577fffffffffffffffffffffffffffffffffffffffffffffffffffffffffffffffff82610d1a565b610d618683610d1a565b95508019841693508086168417925050509392505050565b6000819050919050565b6000610d9e610d99610d9484610611565b610d79565b610611565b9050919050565b6000819050919050565b610db883610d83565b610dcc610dc482610da5565b848454610d27565b825550505050565b600090565b610de1610dd4565b610dec818484610daf565b505050565b5b81811015610e1057610e05600082610dd9565b600181019050610df2565b5050565b601f821115610e5557610e2681610cf5565b610e2f84610d0a565b81016020851015610e3e578190505b610e52610e4a85610d0a565b830182610df1565b50505b505050565b600082821c905092915050565b6000610e7860001984600802610e5a565b1980831691505092915050565b6000610e918383610e67565b9150826002028217905092915050565b610eaa82610674565b67ffffffffffffffff811115610ec357610ec261074d565b5b610ecd8254610cc4565b610ed8828285610e14565b600060209050601f831160018114610f0b5760008415610ef9578287015190505b610f038582610e85565b865550610f6b565b601f198416610f1986610cf5565b60005b82811015610f4157848901518255600182019150602085019450602081019050610f1c565b86831015610f5e5784890151610f5a601f891682610e67565b8355505b6001600288020188555050505b505050505050565b7f564f54494e47204841534e27542053544152544544205945542e000000000000600082015250565b6000610fa9601a8361067f565b9150610fb482610f73565b602082019050919050565b60006020820190508181036000830152610fd881610f9c565b9050919050565b6000610fea82610611565b9150610ff583610611565b925082820390508181111561100d5761100c610c1e565b5b9291505056fea264697066735822122004237779863587b47d6e355287632e6cacfdbe52320b821806e8dd7329a1af7164736f6c63430008130033",
  "linkReferences": {},
  "deployedLinkReferences": {}
}